{
  "contractName": "MultisigFactory",
  "abi": [
    {
      "inputs": [
        {
          "internalType": "uint256",
          "name": "",
          "type": "uint256"
        }
      ],
      "name": "multisigContract",
      "outputs": [
        {
          "internalType": "address",
          "name": "",
          "type": "address"
        }
      ],
      "stateMutability": "view",
      "type": "function",
      "constant": true
    },
    {
      "inputs": [],
      "name": "s_contractIdCounter",
      "outputs": [
        {
          "internalType": "uint256",
          "name": "",
          "type": "uint256"
        }
      ],
      "stateMutability": "view",
      "type": "function",
      "constant": true
    },
    {
      "inputs": [
        {
          "internalType": "address[]",
          "name": "_owners",
          "type": "address[]"
        },
        {
          "internalType": "uint256",
          "name": "_required",
          "type": "uint256"
        }
      ],
      "name": "createNewMultisig",
      "outputs": [],
      "stateMutability": "payable",
      "type": "function",
      "payable": true
    },
    {
      "inputs": [],
      "name": "getCounter",
      "outputs": [
        {
          "internalType": "uint256",
          "name": "",
          "type": "uint256"
        }
      ],
      "stateMutability": "view",
      "type": "function",
      "constant": true
    }
  ],
  "bytecode": "0x608060405234801561001057600080fd5b50611be5806100206000396000f3fe608060405260043610620000445760003560e01c8063514e0b1b14620000495780636f8a2f4014620000695780638ada066e1462000099578063a4f7f74014620000c9575b600080fd5b6200006760048036038101906200006191906200043a565b6200010d565b005b3480156200007657600080fd5b5062000081620001c1565b604051620000909190620004b1565b60405180910390f35b348015620000a657600080fd5b50620000b1620001c7565b604051620000c09190620004b1565b60405180910390f35b348015620000d657600080fd5b50620000f56004803603810190620000ef9190620004ce565b620001d0565b60405162000104919062000511565b60405180910390f35b6000348383604051620001209062000203565b6200012d929190620005fc565b6040518091039082f09050801580156200014b573d6000803e3d6000fd5b50905060016000808282546200016291906200065f565b9250508190555080600160008054815260200190815260200160002060006101000a81548173ffffffffffffffffffffffffffffffffffffffff021916908373ffffffffffffffffffffffffffffffffffffffff160217905550505050565b60005481565b60008054905090565b60016020528060005260406000206000915054906101000a900473ffffffffffffffffffffffffffffffffffffffff1681565b611515806200069b83390190565b6000604051905090565b600080fd5b600080fd5b600080fd5b6000601f19601f8301169050919050565b7f4e487b7100000000000000000000000000000000000000000000000000000000600052604160045260246000fd5b62000275826200022a565b810181811067ffffffffffffffff821117156200029757620002966200023b565b5b80604052505050565b6000620002ac62000211565b9050620002ba82826200026a565b919050565b600067ffffffffffffffff821115620002dd57620002dc6200023b565b5b602082029050602081019050919050565b600080fd5b600073ffffffffffffffffffffffffffffffffffffffff82169050919050565b60006200032082620002f3565b9050919050565b620003328162000313565b81146200033e57600080fd5b50565b600081359050620003528162000327565b92915050565b60006200036f6200036984620002bf565b620002a0565b90508083825260208201905060208402830185811115620003955762000394620002ee565b5b835b81811015620003c25780620003ad888262000341565b84526020840193505060208101905062000397565b5050509392505050565b600082601f830112620003e457620003e362000225565b5b8135620003f684826020860162000358565b91505092915050565b6000819050919050565b6200041481620003ff565b81146200042057600080fd5b50565b600081359050620004348162000409565b92915050565b600080604083850312156200045457620004536200021b565b5b600083013567ffffffffffffffff81111562000475576200047462000220565b5b6200048385828601620003cc565b9250506020620004968582860162000423565b9150509250929050565b620004ab81620003ff565b82525050565b6000602082019050620004c86000830184620004a0565b92915050565b600060208284031215620004e757620004e66200021b565b5b6000620004f78482850162000423565b91505092915050565b6200050b8162000313565b82525050565b600060208201905062000528600083018462000500565b92915050565b600081519050919050565b600082825260208201905092915050565b6000819050602082019050919050565b620005658162000313565b82525050565b60006200057983836200055a565b60208301905092915050565b6000602082019050919050565b60006200059f826200052e565b620005ab818562000539565b9350620005b8836200054a565b8060005b83811015620005ef578151620005d388826200056b565b9750620005e08362000585565b925050600181019050620005bc565b5085935050505092915050565b6000604082019050818103600083015262000618818562000592565b9050620006296020830184620004a0565b9392505050565b7f4e487b7100000000000000000000000000000000000000000000000000000000600052601160045260246000fd5b60006200066c82620003ff565b91506200067983620003ff565b925082820190508082111562000694576200069362000630565b5b9291505056fe60806040526040516200151538038062001515833981810160405281019062000029919062000344565b600081116200003757600080fd5b808251116200004557600080fd5b806001819055508160009080519060200190620000649291906200006d565b505050620003aa565b828054828255906000526020600020908101928215620000e9579160200282015b82811115620000e85782518260006101000a81548173ffffffffffffffffffffffffffffffffffffffff021916908373ffffffffffffffffffffffffffffffffffffffff160217905550916020019190600101906200008e565b5b509050620000f89190620000fc565b5090565b5b8082111562000117576000816000905550600101620000fd565b5090565b6000604051905090565b600080fd5b600080fd5b600080fd5b6000601f19601f8301169050919050565b7f4e487b7100000000000000000000000000000000000000000000000000000000600052604160045260246000fd5b6200017f8262000134565b810181811067ffffffffffffffff82111715620001a157620001a062000145565b5b80604052505050565b6000620001b66200011b565b9050620001c4828262000174565b919050565b600067ffffffffffffffff821115620001e757620001e662000145565b5b602082029050602081019050919050565b600080fd5b600073ffffffffffffffffffffffffffffffffffffffff82169050919050565b60006200022a82620001fd565b9050919050565b6200023c816200021d565b81146200024857600080fd5b50565b6000815190506200025c8162000231565b92915050565b6000620002796200027384620001c9565b620001aa565b905080838252602082019050602084028301858111156200029f576200029e620001f8565b5b835b81811015620002cc5780620002b788826200024b565b845260208401935050602081019050620002a1565b5050509392505050565b600082601f830112620002ee57620002ed6200012f565b5b81516200030084826020860162000262565b91505092915050565b6000819050919050565b6200031e8162000309565b81146200032a57600080fd5b50565b6000815190506200033e8162000313565b92915050565b600080604083850312156200035e576200035d62000125565b5b600083015167ffffffffffffffff8111156200037f576200037e6200012a565b5b6200038d85828601620002d6565b9250506020620003a0858286016200032d565b9150509250929050565b61115b80620003ba6000396000f3fe6080604052600436106100955760003560e01c8063bce800e511610059578063bce800e5146101c3578063c01a8c8414610200578063c642747414610229578063dc8452cd14610252578063ee22610b1461027d5761009c565b8063025e7c27146100a15780633411c81c146100de578063784547a71461011b5780639ace38c214610158578063b77bf600146101985761009c565b3661009c57005b600080fd5b3480156100ad57600080fd5b506100c860048036038101906100c391906108f3565b6102a6565b6040516100d59190610961565b60405180910390f35b3480156100ea57600080fd5b50610105600480360381019061010091906109a8565b6102e5565b6040516101129190610a03565b60405180910390f35b34801561012757600080fd5b50610142600480360381019061013d91906108f3565b610314565b60405161014f9190610a03565b60405180910390f35b34801561016457600080fd5b5061017f600480360381019061017a91906108f3565b61032b565b60405161018f9493929190610abd565b60405180910390f35b3480156101a457600080fd5b506101ad610410565b6040516101ba9190610b09565b60405180910390f35b3480156101cf57600080fd5b506101ea60048036038101906101e591906108f3565b610416565b6040516101f79190610b09565b60405180910390f35b34801561020c57600080fd5b50610227600480360381019061022291906108f3565b610563565b005b34801561023557600080fd5b50610250600480360381019061024b9190610c59565b610691565b005b34801561025e57600080fd5b506102676106af565b6040516102749190610b09565b60405180910390f35b34801561028957600080fd5b506102a4600480360381019061029f91906108f3565b6106b5565b005b600081815481106102b657600080fd5b906000526020600020016000915054906101000a900473ffffffffffffffffffffffffffffffffffffffff1681565b60046020528160005260406000206020528060005260406000206000915091509054906101000a900460ff1681565b600060015461032283610416565b10159050919050565b60036020528060005260406000206000915090508060000160009054906101000a900473ffffffffffffffffffffffffffffffffffffffff16908060010154908060020160009054906101000a900460ff169080600301805461038d90610cf7565b80601f01602080910402602001604051908101604052809291908181526020018280546103b990610cf7565b80156104065780601f106103db57610100808354040283529160200191610406565b820191906000526020600020905b8154815290600101906020018083116103e957829003601f168201915b5050505050905084565b60025481565b600080600080548060200260200160405190810160405280929190818152602001828054801561049b57602002820191906000526020600020905b8160009054906101000a900473ffffffffffffffffffffffffffffffffffffffff1673ffffffffffffffffffffffffffffffffffffffff1681526020019060010190808311610451575b50505050509050600080600090505b825181101561055857600115156004600087815260200190815260200160002060008584815181106104df576104de610d28565b5b602002602001015173ffffffffffffffffffffffffffffffffffffffff1673ffffffffffffffffffffffffffffffffffffffff16815260200190815260200160002060009054906101000a900460ff1615150361054557818061054190610d86565b9250505b808061055090610d86565b9150506104aa565b508092505050919050565b600080600090505b600080549050811015610601573373ffffffffffffffffffffffffffffffffffffffff16600082815481106105a3576105a2610d28565b5b9060005260206000200160009054906101000a900473ffffffffffffffffffffffffffffffffffffffff1673ffffffffffffffffffffffffffffffffffffffff16036105ee57600191505b80806105f990610d86565b91505061056b565b508061060c57600080fd5b60016004600084815260200190815260200160002060003373ffffffffffffffffffffffffffffffffffffffff1673ffffffffffffffffffffffffffffffffffffffff16815260200190815260200160002060006101000a81548160ff02191690831515021790555061067e82610314565b1561068d5761068c826106b5565b5b5050565b600061069e8484846107a3565b90506106a981610563565b50505050565b60015481565b6106be81610314565b6106c757600080fd5b600060036000838152602001908152602001600020905060008160000160009054906101000a900473ffffffffffffffffffffffffffffffffffffffff1673ffffffffffffffffffffffffffffffffffffffff168260010154836003016040516107319190610e71565b60006040518083038185875af1925050503d806000811461076e576040519150601f19603f3d011682016040523d82523d6000602084013e610773565b606091505b505090508061078157600080fd5b60018260020160006101000a81548160ff021916908315150217905550505050565b600080600254905060405180608001604052808673ffffffffffffffffffffffffffffffffffffffff1681526020018581526020016000151581526020018481525060036000600254815260200190815260200160002060008201518160000160006101000a81548173ffffffffffffffffffffffffffffffffffffffff021916908373ffffffffffffffffffffffffffffffffffffffff1602179055506020820151816001015560408201518160020160006101000a81548160ff0219169083151502179055506060820151816003019081610880919061101f565b5090505060016002600082825461089791906110f1565b92505081905550809150509392505050565b6000604051905090565b600080fd5b600080fd5b6000819050919050565b6108d0816108bd565b81146108db57600080fd5b50565b6000813590506108ed816108c7565b92915050565b600060208284031215610909576109086108b3565b5b6000610917848285016108de565b91505092915050565b600073ffffffffffffffffffffffffffffffffffffffff82169050919050565b600061094b82610920565b9050919050565b61095b81610940565b82525050565b60006020820190506109766000830184610952565b92915050565b61098581610940565b811461099057600080fd5b50565b6000813590506109a28161097c565b92915050565b600080604083850312156109bf576109be6108b3565b5b60006109cd858286016108de565b92505060206109de85828601610993565b9150509250929050565b60008115159050919050565b6109fd816109e8565b82525050565b6000602082019050610a1860008301846109f4565b92915050565b610a27816108bd565b82525050565b600081519050919050565b600082825260208201905092915050565b60005b83811015610a67578082015181840152602081019050610a4c565b60008484015250505050565b6000601f19601f8301169050919050565b6000610a8f82610a2d565b610a998185610a38565b9350610aa9818560208601610a49565b610ab281610a73565b840191505092915050565b6000608082019050610ad26000830187610952565b610adf6020830186610a1e565b610aec60408301856109f4565b8181036060830152610afe8184610a84565b905095945050505050565b6000602082019050610b1e6000830184610a1e565b92915050565b600080fd5b600080fd5b7f4e487b7100000000000000000000000000000000000000000000000000000000600052604160045260246000fd5b610b6682610a73565b810181811067ffffffffffffffff82111715610b8557610b84610b2e565b5b80604052505050565b6000610b986108a9565b9050610ba48282610b5d565b919050565b600067ffffffffffffffff821115610bc457610bc3610b2e565b5b610bcd82610a73565b9050602081019050919050565b82818337600083830152505050565b6000610bfc610bf784610ba9565b610b8e565b905082815260208101848484011115610c1857610c17610b29565b5b610c23848285610bda565b509392505050565b600082601f830112610c4057610c3f610b24565b5b8135610c50848260208601610be9565b91505092915050565b600080600060608486031215610c7257610c716108b3565b5b6000610c8086828701610993565b9350506020610c91868287016108de565b925050604084013567ffffffffffffffff811115610cb257610cb16108b8565b5b610cbe86828701610c2b565b9150509250925092565b7f4e487b7100000000000000000000000000000000000000000000000000000000600052602260045260246000fd5b60006002820490506001821680610d0f57607f821691505b602082108103610d2257610d21610cc8565b5b50919050565b7f4e487b7100000000000000000000000000000000000000000000000000000000600052603260045260246000fd5b7f4e487b7100000000000000000000000000000000000000000000000000000000600052601160045260246000fd5b6000610d91826108bd565b91507fffffffffffffffffffffffffffffffffffffffffffffffffffffffffffffffff8203610dc357610dc2610d57565b5b600182019050919050565b600081905092915050565b60008190508160005260206000209050919050565b60008154610dfb81610cf7565b610e058186610dce565b94506001821660008114610e205760018114610e3557610e68565b60ff1983168652811515820286019350610e68565b610e3e85610dd9565b60005b83811015610e6057815481890152600182019150602081019050610e41565b838801955050505b50505092915050565b6000610e7d8284610dee565b915081905092915050565b60006020601f8301049050919050565b600082821b905092915050565b600060088302610ed57fffffffffffffffffffffffffffffffffffffffffffffffffffffffffffffffff82610e98565b610edf8683610e98565b95508019841693508086168417925050509392505050565b6000819050919050565b6000610f1c610f17610f12846108bd565b610ef7565b6108bd565b9050919050565b6000819050919050565b610f3683610f01565b610f4a610f4282610f23565b848454610ea5565b825550505050565b600090565b610f5f610f52565b610f6a818484610f2d565b505050565b5b81811015610f8e57610f83600082610f57565b600181019050610f70565b5050565b601f821115610fd357610fa481610dd9565b610fad84610e88565b81016020851015610fbc578190505b610fd0610fc885610e88565b830182610f6f565b50505b505050565b600082821c905092915050565b6000610ff660001984600802610fd8565b1980831691505092915050565b600061100f8383610fe5565b9150826002028217905092915050565b61102882610a2d565b67ffffffffffffffff81111561104157611040610b2e565b5b61104b8254610cf7565b611056828285610f92565b600060209050601f8311600181146110895760008415611077578287015190505b6110818582611003565b8655506110e9565b601f19841661109786610dd9565b60005b828110156110bf5784890151825560018201915060208501945060208101905061109a565b868310156110dc57848901516110d8601f891682610fe5565b8355505b6001600288020188555050505b505050505050565b60006110fc826108bd565b9150611107836108bd565b925082820190508082111561111f5761111e610d57565b5b9291505056fea26469706673582212202249bee65a83433dd47beb188153fdc834493722bcf06a36f07d982603d8e52e64736f6c63430008120033a2646970667358221220abda030a56c8c9e1ae41300baffcef26eb52473ec5407170ce0cf407dc0045e464736f6c63430008120033",
  "immutableReferences": {},
  "source": "// SPDX-License-Identifier: MIT\npragma solidity 0.8.18;\nimport \"./Multisig.sol\";\n\ncontract MultisigFactory {\n    // starts with one but if there is not multisig deployed then it is zero\n    uint256 public s_contractIdCounter;\n\n    mapping(uint256 => address) public multisigContract;\n\n    function createNewMultisig(\n        address[] memory _owners,\n        uint _required\n    ) external payable {\n        MultiSig msig = new MultiSig{value: msg.value}(_owners, _required);\n        s_contractIdCounter += 1;\n        multisigContract[s_contractIdCounter] = address(msig);\n    }\n\n    function getCounter() public view returns (uint256) {\n        return s_contractIdCounter;\n    }\n}\n",
  "sourcePath": "/home/lavishq/mxmxmx/foralleth/sigma antle/contracts/MultisigFactory.sol",
  "compiler": {
    "name": "solc",
    "version": "0.8.18+commit.87f61d96.Emscripten.clang"
  },
  "schemaVersion": "3.4.11",
  "updatedAt": "2023-02-16T15:00:22.162Z",
  "networkType": "ethereum",
  "devdoc": {
    "kind": "dev",
    "methods": {},
    "version": 1
  },
  "userdoc": {
    "kind": "user",
    "methods": {},
    "version": 1
  }
}