{
  "contractName": "MultiSigFactory",
  "abi": [
    {
      "inputs": [
        {
          "internalType": "uint256",
          "name": "",
          "type": "uint256"
        }
      ],
      "name": "multisigContract",
      "outputs": [
        {
          "internalType": "address",
          "name": "",
          "type": "address"
        }
      ],
      "stateMutability": "view",
      "type": "function"
    },
    {
      "inputs": [],
      "name": "s_contractIdCounter",
      "outputs": [
        {
          "internalType": "uint256",
          "name": "",
          "type": "uint256"
        }
      ],
      "stateMutability": "view",
      "type": "function"
    },
    {
      "stateMutability": "payable",
      "type": "receive"
    },
    {
      "inputs": [
        {
          "internalType": "address[]",
          "name": "_owners",
          "type": "address[]"
        },
        {
          "internalType": "uint256",
          "name": "_required",
          "type": "uint256"
        }
      ],
      "name": "createNewMultisig",
      "outputs": [],
      "stateMutability": "nonpayable",
      "type": "function"
    }
  ],
  "bytecode": "0x608060405234801561001057600080fd5b50611bc7806100206000396000f3fe6080604052600436106200003d5760003560e01c8063514e0b1b146200004a5780636f8a2f401462000078578063a4f7f74014620000a85762000045565b366200004557005b600080fd5b3480156200005757600080fd5b506200007660048036038101906200007091906200040e565b620000ec565b005b3480156200008557600080fd5b50620000906200019e565b6040516200009f919062000485565b60405180910390f35b348015620000b557600080fd5b50620000d46004803603810190620000ce9190620004a2565b620001a4565b604051620000e39190620004e5565b60405180910390f35b60008282604051620000fe90620001d7565b6200010b929190620005d0565b604051809103906000f08015801562000128573d6000803e3d6000fd5b50905060016000808282546200013f919062000633565b9250508190555080600160008054815260200190815260200160002060006101000a81548173ffffffffffffffffffffffffffffffffffffffff021916908373ffffffffffffffffffffffffffffffffffffffff160217905550505050565b60005481565b60016020528060005260406000206000915054906101000a900473ffffffffffffffffffffffffffffffffffffffff1681565b611523806200066f83390190565b6000604051905090565b600080fd5b600080fd5b600080fd5b6000601f19601f8301169050919050565b7f4e487b7100000000000000000000000000000000000000000000000000000000600052604160045260246000fd5b6200024982620001fe565b810181811067ffffffffffffffff821117156200026b576200026a6200020f565b5b80604052505050565b600062000280620001e5565b90506200028e82826200023e565b919050565b600067ffffffffffffffff821115620002b157620002b06200020f565b5b602082029050602081019050919050565b600080fd5b600073ffffffffffffffffffffffffffffffffffffffff82169050919050565b6000620002f482620002c7565b9050919050565b6200030681620002e7565b81146200031257600080fd5b50565b6000813590506200032681620002fb565b92915050565b6000620003436200033d8462000293565b62000274565b90508083825260208201905060208402830185811115620003695762000368620002c2565b5b835b8181101562000396578062000381888262000315565b8452602084019350506020810190506200036b565b5050509392505050565b600082601f830112620003b857620003b7620001f9565b5b8135620003ca8482602086016200032c565b91505092915050565b6000819050919050565b620003e881620003d3565b8114620003f457600080fd5b50565b6000813590506200040881620003dd565b92915050565b60008060408385031215620004285762000427620001ef565b5b600083013567ffffffffffffffff811115620004495762000448620001f4565b5b6200045785828601620003a0565b92505060206200046a85828601620003f7565b9150509250929050565b6200047f81620003d3565b82525050565b60006020820190506200049c600083018462000474565b92915050565b600060208284031215620004bb57620004ba620001ef565b5b6000620004cb84828501620003f7565b91505092915050565b620004df81620002e7565b82525050565b6000602082019050620004fc6000830184620004d4565b92915050565b600081519050919050565b600082825260208201905092915050565b6000819050602082019050919050565b6200053981620002e7565b82525050565b60006200054d83836200052e565b60208301905092915050565b6000602082019050919050565b6000620005738262000502565b6200057f81856200050d565b93506200058c836200051e565b8060005b83811015620005c3578151620005a788826200053f565b9750620005b48362000559565b92505060018101905062000590565b5085935050505092915050565b60006040820190508181036000830152620005ec818562000566565b9050620005fd602083018462000474565b9392505050565b7f4e487b7100000000000000000000000000000000000000000000000000000000600052601160045260246000fd5b60006200064082620003d3565b91506200064d83620003d3565b925082820190508082111562000668576200066762000604565b5b9291505056fe60806040523480156200001157600080fd5b506040516200152338038062001523833981810160405281019062000037919062000352565b600081116200004557600080fd5b808251116200005357600080fd5b806001819055508160009080519060200190620000729291906200007b565b505050620003b8565b828054828255906000526020600020908101928215620000f7579160200282015b82811115620000f65782518260006101000a81548173ffffffffffffffffffffffffffffffffffffffff021916908373ffffffffffffffffffffffffffffffffffffffff160217905550916020019190600101906200009c565b5b5090506200010691906200010a565b5090565b5b80821115620001255760008160009055506001016200010b565b5090565b6000604051905090565b600080fd5b600080fd5b600080fd5b6000601f19601f8301169050919050565b7f4e487b7100000000000000000000000000000000000000000000000000000000600052604160045260246000fd5b6200018d8262000142565b810181811067ffffffffffffffff82111715620001af57620001ae62000153565b5b80604052505050565b6000620001c462000129565b9050620001d2828262000182565b919050565b600067ffffffffffffffff821115620001f557620001f462000153565b5b602082029050602081019050919050565b600080fd5b600073ffffffffffffffffffffffffffffffffffffffff82169050919050565b600062000238826200020b565b9050919050565b6200024a816200022b565b81146200025657600080fd5b50565b6000815190506200026a816200023f565b92915050565b6000620002876200028184620001d7565b620001b8565b90508083825260208201905060208402830185811115620002ad57620002ac62000206565b5b835b81811015620002da5780620002c5888262000259565b845260208401935050602081019050620002af565b5050509392505050565b600082601f830112620002fc57620002fb6200013d565b5b81516200030e84826020860162000270565b91505092915050565b6000819050919050565b6200032c8162000317565b81146200033857600080fd5b50565b6000815190506200034c8162000321565b92915050565b600080604083850312156200036c576200036b62000133565b5b600083015167ffffffffffffffff8111156200038d576200038c62000138565b5b6200039b85828601620002e4565b9250506020620003ae858286016200033b565b9150509250929050565b61115b80620003c86000396000f3fe6080604052600436106100955760003560e01c8063bce800e511610059578063bce800e5146101c3578063c01a8c8414610200578063c642747414610229578063dc8452cd14610252578063ee22610b1461027d5761009c565b8063025e7c27146100a15780633411c81c146100de578063784547a71461011b5780639ace38c214610158578063b77bf600146101985761009c565b3661009c57005b600080fd5b3480156100ad57600080fd5b506100c860048036038101906100c391906108f3565b6102a6565b6040516100d59190610961565b60405180910390f35b3480156100ea57600080fd5b50610105600480360381019061010091906109a8565b6102e5565b6040516101129190610a03565b60405180910390f35b34801561012757600080fd5b50610142600480360381019061013d91906108f3565b610314565b60405161014f9190610a03565b60405180910390f35b34801561016457600080fd5b5061017f600480360381019061017a91906108f3565b61032b565b60405161018f9493929190610abd565b60405180910390f35b3480156101a457600080fd5b506101ad610410565b6040516101ba9190610b09565b60405180910390f35b3480156101cf57600080fd5b506101ea60048036038101906101e591906108f3565b610416565b6040516101f79190610b09565b60405180910390f35b34801561020c57600080fd5b50610227600480360381019061022291906108f3565b610563565b005b34801561023557600080fd5b50610250600480360381019061024b9190610c59565b610691565b005b34801561025e57600080fd5b506102676106af565b6040516102749190610b09565b60405180910390f35b34801561028957600080fd5b506102a4600480360381019061029f91906108f3565b6106b5565b005b600081815481106102b657600080fd5b906000526020600020016000915054906101000a900473ffffffffffffffffffffffffffffffffffffffff1681565b60046020528160005260406000206020528060005260406000206000915091509054906101000a900460ff1681565b600060015461032283610416565b10159050919050565b60036020528060005260406000206000915090508060000160009054906101000a900473ffffffffffffffffffffffffffffffffffffffff16908060010154908060020160009054906101000a900460ff169080600301805461038d90610cf7565b80601f01602080910402602001604051908101604052809291908181526020018280546103b990610cf7565b80156104065780601f106103db57610100808354040283529160200191610406565b820191906000526020600020905b8154815290600101906020018083116103e957829003601f168201915b5050505050905084565b60025481565b600080600080548060200260200160405190810160405280929190818152602001828054801561049b57602002820191906000526020600020905b8160009054906101000a900473ffffffffffffffffffffffffffffffffffffffff1673ffffffffffffffffffffffffffffffffffffffff1681526020019060010190808311610451575b50505050509050600080600090505b825181101561055857600115156004600087815260200190815260200160002060008584815181106104df576104de610d28565b5b602002602001015173ffffffffffffffffffffffffffffffffffffffff1673ffffffffffffffffffffffffffffffffffffffff16815260200190815260200160002060009054906101000a900460ff1615150361054557818061054190610d86565b9250505b808061055090610d86565b9150506104aa565b508092505050919050565b600080600090505b600080549050811015610601573373ffffffffffffffffffffffffffffffffffffffff16600082815481106105a3576105a2610d28565b5b9060005260206000200160009054906101000a900473ffffffffffffffffffffffffffffffffffffffff1673ffffffffffffffffffffffffffffffffffffffff16036105ee57600191505b80806105f990610d86565b91505061056b565b508061060c57600080fd5b60016004600084815260200190815260200160002060003373ffffffffffffffffffffffffffffffffffffffff1673ffffffffffffffffffffffffffffffffffffffff16815260200190815260200160002060006101000a81548160ff02191690831515021790555061067e82610314565b1561068d5761068c826106b5565b5b5050565b600061069e8484846107a3565b90506106a981610563565b50505050565b60015481565b6106be81610314565b6106c757600080fd5b600060036000838152602001908152602001600020905060008160000160009054906101000a900473ffffffffffffffffffffffffffffffffffffffff1673ffffffffffffffffffffffffffffffffffffffff168260010154836003016040516107319190610e71565b60006040518083038185875af1925050503d806000811461076e576040519150601f19603f3d011682016040523d82523d6000602084013e610773565b606091505b505090508061078157600080fd5b60018260020160006101000a81548160ff021916908315150217905550505050565b600080600254905060405180608001604052808673ffffffffffffffffffffffffffffffffffffffff1681526020018581526020016000151581526020018481525060036000600254815260200190815260200160002060008201518160000160006101000a81548173ffffffffffffffffffffffffffffffffffffffff021916908373ffffffffffffffffffffffffffffffffffffffff1602179055506020820151816001015560408201518160020160006101000a81548160ff0219169083151502179055506060820151816003019081610880919061101f565b5090505060016002600082825461089791906110f1565b92505081905550809150509392505050565b6000604051905090565b600080fd5b600080fd5b6000819050919050565b6108d0816108bd565b81146108db57600080fd5b50565b6000813590506108ed816108c7565b92915050565b600060208284031215610909576109086108b3565b5b6000610917848285016108de565b91505092915050565b600073ffffffffffffffffffffffffffffffffffffffff82169050919050565b600061094b82610920565b9050919050565b61095b81610940565b82525050565b60006020820190506109766000830184610952565b92915050565b61098581610940565b811461099057600080fd5b50565b6000813590506109a28161097c565b92915050565b600080604083850312156109bf576109be6108b3565b5b60006109cd858286016108de565b92505060206109de85828601610993565b9150509250929050565b60008115159050919050565b6109fd816109e8565b82525050565b6000602082019050610a1860008301846109f4565b92915050565b610a27816108bd565b82525050565b600081519050919050565b600082825260208201905092915050565b60005b83811015610a67578082015181840152602081019050610a4c565b60008484015250505050565b6000601f19601f8301169050919050565b6000610a8f82610a2d565b610a998185610a38565b9350610aa9818560208601610a49565b610ab281610a73565b840191505092915050565b6000608082019050610ad26000830187610952565b610adf6020830186610a1e565b610aec60408301856109f4565b8181036060830152610afe8184610a84565b905095945050505050565b6000602082019050610b1e6000830184610a1e565b92915050565b600080fd5b600080fd5b7f4e487b7100000000000000000000000000000000000000000000000000000000600052604160045260246000fd5b610b6682610a73565b810181811067ffffffffffffffff82111715610b8557610b84610b2e565b5b80604052505050565b6000610b986108a9565b9050610ba48282610b5d565b919050565b600067ffffffffffffffff821115610bc457610bc3610b2e565b5b610bcd82610a73565b9050602081019050919050565b82818337600083830152505050565b6000610bfc610bf784610ba9565b610b8e565b905082815260208101848484011115610c1857610c17610b29565b5b610c23848285610bda565b509392505050565b600082601f830112610c4057610c3f610b24565b5b8135610c50848260208601610be9565b91505092915050565b600080600060608486031215610c7257610c716108b3565b5b6000610c8086828701610993565b9350506020610c91868287016108de565b925050604084013567ffffffffffffffff811115610cb257610cb16108b8565b5b610cbe86828701610c2b565b9150509250925092565b7f4e487b7100000000000000000000000000000000000000000000000000000000600052602260045260246000fd5b60006002820490506001821680610d0f57607f821691505b602082108103610d2257610d21610cc8565b5b50919050565b7f4e487b7100000000000000000000000000000000000000000000000000000000600052603260045260246000fd5b7f4e487b7100000000000000000000000000000000000000000000000000000000600052601160045260246000fd5b6000610d91826108bd565b91507fffffffffffffffffffffffffffffffffffffffffffffffffffffffffffffffff8203610dc357610dc2610d57565b5b600182019050919050565b600081905092915050565b60008190508160005260206000209050919050565b60008154610dfb81610cf7565b610e058186610dce565b94506001821660008114610e205760018114610e3557610e68565b60ff1983168652811515820286019350610e68565b610e3e85610dd9565b60005b83811015610e6057815481890152600182019150602081019050610e41565b838801955050505b50505092915050565b6000610e7d8284610dee565b915081905092915050565b60006020601f8301049050919050565b600082821b905092915050565b600060088302610ed57fffffffffffffffffffffffffffffffffffffffffffffffffffffffffffffffff82610e98565b610edf8683610e98565b95508019841693508086168417925050509392505050565b6000819050919050565b6000610f1c610f17610f12846108bd565b610ef7565b6108bd565b9050919050565b6000819050919050565b610f3683610f01565b610f4a610f4282610f23565b848454610ea5565b825550505050565b600090565b610f5f610f52565b610f6a818484610f2d565b505050565b5b81811015610f8e57610f83600082610f57565b600181019050610f70565b5050565b601f821115610fd357610fa481610dd9565b610fad84610e88565b81016020851015610fbc578190505b610fd0610fc885610e88565b830182610f6f565b50505b505050565b600082821c905092915050565b6000610ff660001984600802610fd8565b1980831691505092915050565b600061100f8383610fe5565b9150826002028217905092915050565b61102882610a2d565b67ffffffffffffffff81111561104157611040610b2e565b5b61104b8254610cf7565b611056828285610f92565b600060209050601f8311600181146110895760008415611077578287015190505b6110818582611003565b8655506110e9565b601f19841661109786610dd9565b60005b828110156110bf5784890151825560018201915060208501945060208101905061109a565b868310156110dc57848901516110d8601f891682610fe5565b8355505b6001600288020188555050505b505050505050565b60006110fc826108bd565b9150611107836108bd565b925082820190508082111561111f5761111e610d57565b5b9291505056fea264697066735822122011a8ee8e81da3757c546d840a0e9b4700ad28047acb2681b046d33956155009464736f6c63430008120033a26469706673582212200adcacac8b6a39c22703b23ea93d4be3d9283d62df8d6056c86dc917c9e1793c64736f6c63430008120033",
  "immutableReferences": {},
  "source": "// SPDX-License-Identifier: MIT\npragma solidity 0.8.18;\nimport \"./Multisig.sol\";\n\ncontract MultiSigFactory {\n    // starts with one but if there is not multisig deployed then it is zero\n    uint256 public s_contractIdCounter;\n\n    mapping(uint256 => address) public multisigContract;\n\n    receive() external payable {}\n\n    function createNewMultisig(\n        address[] memory _owners,\n        uint _required\n    ) external {\n        MultiSig msig = new MultiSig(_owners, _required);\n        s_contractIdCounter += 1;\n        multisigContract[s_contractIdCounter] = address(msig);\n    }\n}\n",
  "sourcePath": "/home/lavishq/mxmxmx/foralleth/sigma antle/contracts/MultisigFactory.sol",
  "compiler": {
    "name": "solc",
    "version": "0.8.18+commit.87f61d96.Emscripten.clang"
  },
  "schemaVersion": "3.4.11",
  "updatedAt": "2023-02-15T15:01:30.119Z",
  "devdoc": {
    "kind": "dev",
    "methods": {},
    "version": 1
  },
  "userdoc": {
    "kind": "user",
    "methods": {},
    "version": 1
  }
}