{
  "contractName": "Split",
  "abi": [
    {
      "inputs": [
        {
          "internalType": "address[]",
          "name": "_to",
          "type": "address[]"
        }
      ],
      "name": "to_split",
      "outputs": [],
      "stateMutability": "payable",
      "type": "function",
      "payable": true
    }
  ],
  "bytecode": "0x608060405234801561001057600080fd5b5061055d806100206000396000f3fe60806040526004361061001e5760003560e01c80631b8e556314610023575b600080fd5b61003d6004803603810190610038919061030b565b61003f565b005b6000815190506000813461005391906103bc565b905060005b8281101561013a576000848281518110610075576100746103ed565b5b602002602001015173ffffffffffffffffffffffffffffffffffffffff16836040516100a09061044d565b60006040518083038185875af1925050503d80600081146100dd576040519150601f19603f3d011682016040523d82523d6000602084013e6100e2565b606091505b5050905080610126576040517f08c379a000000000000000000000000000000000000000000000000000000000815260040161011d906104bf565b60405180910390fd5b508080610132906104df565b915050610058565b50505050565b6000604051905090565b600080fd5b600080fd5b600080fd5b6000601f19601f8301169050919050565b7f4e487b7100000000000000000000000000000000000000000000000000000000600052604160045260246000fd5b6101a282610159565b810181811067ffffffffffffffff821117156101c1576101c061016a565b5b80604052505050565b60006101d4610140565b90506101e08282610199565b919050565b600067ffffffffffffffff821115610200576101ff61016a565b5b602082029050602081019050919050565b600080fd5b600073ffffffffffffffffffffffffffffffffffffffff82169050919050565b600061024182610216565b9050919050565b61025181610236565b811461025c57600080fd5b50565b60008135905061026e81610248565b92915050565b6000610287610282846101e5565b6101ca565b905080838252602082019050602084028301858111156102aa576102a9610211565b5b835b818110156102d357806102bf888261025f565b8452602084019350506020810190506102ac565b5050509392505050565b600082601f8301126102f2576102f1610154565b5b8135610302848260208601610274565b91505092915050565b6000602082840312156103215761032061014a565b5b600082013567ffffffffffffffff81111561033f5761033e61014f565b5b61034b848285016102dd565b91505092915050565b6000819050919050565b7f4e487b7100000000000000000000000000000000000000000000000000000000600052601260045260246000fd5b7f4e487b7100000000000000000000000000000000000000000000000000000000600052601160045260246000fd5b60006103c782610354565b91506103d283610354565b9250826103e2576103e161035e565b5b828204905092915050565b7f4e487b7100000000000000000000000000000000000000000000000000000000600052603260045260246000fd5b600081905092915050565b50565b600061043760008361041c565b915061044282610427565b600082019050919050565b60006104588261042a565b9150819050919050565b600082825260208201905092915050565b7f4661696c656420746f2073656e64000000000000000000000000000000000000600082015250565b60006104a9600e83610462565b91506104b482610473565b602082019050919050565b600060208201905081810360008301526104d88161049c565b9050919050565b60006104ea82610354565b91507fffffffffffffffffffffffffffffffffffffffffffffffffffffffffffffffff820361051c5761051b61038d565b5b60018201905091905056fea26469706673582212209d115eea165d766648867ad4d0f72a7b6fea40d6dcb557ae44ea22f6b3c291ab64736f6c63430008120033",
  "immutableReferences": {},
  "source": "// SPDX-License-Identifier: MIT\npragma solidity 0.8.18;\n\ncontract Split {\n    function to_split(address[] memory _to) public payable {\n        uint256 splitAmong = _to.length;\n        uint256 amountPerSplit = msg.value / splitAmong;\n        for (uint i; i < splitAmong; i++) {\n            (bool sent, ) = _to[i].call{value: amountPerSplit}(\"\");\n            require(sent, \"Failed to send\");\n        }\n    }\n}\n",
  "sourcePath": "/home/lavishq/mxmxmx/foralleth/sigma antle/contracts/Split.sol",
  "compiler": {
    "name": "solc",
    "version": "0.8.18+commit.87f61d96.Emscripten.clang"
  },
  "schemaVersion": "3.4.11",
  "updatedAt": "2023-02-16T15:00:22.166Z",
  "networkType": "ethereum",
  "devdoc": {
    "kind": "dev",
    "methods": {},
    "version": 1
  },
  "userdoc": {
    "kind": "user",
    "methods": {},
    "version": 1
  }
}